:02000004C0D06A
:10000000B0B58CB062B61A4C2120C100204603F076
:100010001BF800F012FD6D46284603F051F8A88544
:1000200080B2052806D16846002181850A9801F032
:1000300075FCE9E700280AD06846002484850A9800
:1000400001F06CFC00F0B2FC20460CB0B0BD68467C
:1000500001F064FC0A9000F009FE002002F022FB8F
:10006000012002F01FFB00F0D1FC00F005FCC046AF
:1000700000020020F0B599B015460C460121C907D1
:1000800006910591084304901E4803902C3102917B
:1000900000200090212602A9052211AF30463B46E0
:1000A00001F0ACFB202207AB3046394600F032F8B5
:1000B000002824D1002D0FD0212000210A462B46F4
:1000C00000F02EF800281AD1212007AA0123294682
:1000D00000F01AF8002812D1002C06D007A80EC88C
:1000E0000EC40EC80EC42EC82EC411A8202102F0C2
:1000F000BFFF07A8282102F0BBFF19B0F0BD00F038
:10010000A1FCC0468A02008003B4014817E0000049
:100110001B00000003B4014811E000001C000000B7
:1001200003B401480BE000001D00000003B40148C7
:1001300005E000005800000003B40248FFE7024950
:10014000084700006F00000001001200F0B585B004
:100150003A4DA81D3C4979441022029202F079FFE1
:100160002E353A49794405262846324602F071FF79
:10017000D420334F364979443950C82003903E5437
:10018000C424344878443851D020019000253D5093
:100190002C4845600321017001F05AFB04263046CB
:1001A00001F0CAFB2749486000F078FD00F078FDB7
:1001B000C22004903D52304601F0BEFB2149486008
:1001C00026463959019C0A9D002931D000282FD09C
:1001D00097282DD00498385A0399795C80B28842C8
:1001E00026D201F075FB002822D101F0F9FAAA28E5
:1001F00003D101F01FFBAA281AD1B95904983A5A21
:10020000500108183B59002B05D09847002808D00A
:1002100004997A5AB959012801D15001081800F0FF
:100220006FF80499785A401C7852B9590029D3D1F3
:10023000286802990843286005B0F0BD0803002033
:1002400000020020C8030020B62F0000B82F0000D5
:10025000DF000000A02F000010B594B010498842C4
:1002600005D01049884217D11048002110E0002025
:1002700001AA0146FFF7FEFE029C002C05D001A951
:1002800008310948224602F0E4FE09200003214615
:1002900000F0E2FA00F0D0FB002014B010BDC04620
:1002A00002000080010000805004002085690000E9
:1002B000B0B582B00E4801218170002242700170F9
:1002C0000C4801900C487844042401AD21462A468C
:1002D00001F09CF80948784421462A4601F096F836
:1002E00009200003032100F0B7FA02B0B0BDC046F8
:1002F00050040020DEADBEEFFE2E00000D2F0000EA
:1003000080B500F021FD80BDF0B581B0F54D2878B5
:100310000D2805DC052800D1AEE00D280DD057E0F2
:100320000E2800D102E1152852D1EF48807901282A
:1003300003D1A879000700D465E2EC4C0027676080
:1003400001202070204601F083FA042001F0F4FA25
:100350006060002800D14DE2692800D1CAE19728E9
:1003600000D147E2C425E24C6059002800D139E2AF
:10037000C226A05BC821615C80B2884200D331E212
:1003800001F0A6FA002800D02CE201F029FAAA28F0
:1003900004D101F04FFAAA2800D023E26159A25BF0
:1003A00050010818D023E358002B04D098470028A8
:1003B00007D0A25B6159012801D15001081800F053
:1003C000C3FCA05B401CA05361590029D2D109E2B3
:1003D000C64C0027676001202070204601F038FAE3
:1003E000042001F0A9FA6060692800D0F2E000F072
:1003F00055FC00F055FCC225BD4E7753042001F09A
:100400009BFA6060C4243159002900D1F2E1002830
:1004100000D1EFE1972800D1ECE1705BC821715C5D
:1004200080B2884200D3E5E101F052FA002800D002
:10043000E0E101F0D5F9AA2804D101F0FBF9AA28DE
:1004400000D0D7E13159725B50010818D023F3581E
:10045000002B04D09847002807D0725B315901283F
:1004600001D15001081800F06FFC705B401C705304
:1004700031590029D2D1BDE1E44C00276760012049
:100480002070204601F0E4F9042001F055FA606084
:10049000002800D1AEE1972800D1ABE1692800D057
:1004A00067E100F0FBFB00F0FBFBC225D84E775361
:1004B000042001F041FA6060C4243159002900D1C0
:1004C00098E1002800D195E1972800D192E1705B76
:1004D000C821715C80B2884200D38BE101F0F8F949
:1004E000002800D086E101F07BF9AA2804D101F0B0
:1004F000A1F9AA2800D07DE13159725B500108189A
:10050000D023F358002B04D09847002807D0725B03
:100510003159012801D15001081800F015FC705B19
:10052000401C705331590029D2D163E1B74D0026E8
:100530006E6001202870284601F08AF9042001F03D
:10054000FBF9686069287BD100F0A8FB00F0A8FBEC
:10055000C224AF4E00203053042001F0EDF9686052
:10056000C4257159002900D144E1002800D141E19E
:10057000972800D13EE1305BC821715C80B288428F
:1005800000D337E101F0A4F9002800D032E101F0F6
:1005900027F9AA2804D101F04DF9AA2800D029E1B1
:1005A0007159325B50010818D023F358002B04D046
:1005B0009847002807D0325B7159012801D15001BA
:1005C000081800F0C1FB305B401C30537159002902
:1005D000D2D10FE1C4258E4C6059002800D101E131
:1005E000C226A05BC821615C80B2884200D3F9E0DA
:1005F00001F06EF9002800D0F4E001F0F1F8AA282B
:1006000004D101F017F9AA2800D0EBE06159A25BF0
:1006100050010818D023E358002B04D09847002835
:1006200007D0A25B6159012801D15001081800F0E0
:100630008BFBA05B401CA05361590029D2D1D1E0B3
:100640000446DC20724D295800290FD00A46643A2E
:1006500000D232462A50642908D8D8216958002986
:1006600004D0E022AA582A5000208847002C00D14C
:10067000C0E0972C00D1BDE0C424285900282BD01D
:10068000C226A85BC821695C80B2884224D201F0EE
:100690001FF9002820D101F0A3F8AA2803D101F006
:1006A000C9F8AA2818D12959AA5B50010818D023E3
:1006B000EB58002B04D09847002807D0AA5B295993
:1006C000012801D15001081800F03EFBA85B401C36
:1006D000A85329590029D5D1C820285CC221695ABC
:1006E00084E0C046D003002054050020C803002049
:1006F0000002002000F0D2FA00F0D2FAC225444EE7
:100700007753042001F018F96060C424315900299E
:1007100070D000286ED097286CD0705BC821715CB7
:1007200080B2884266D201F0D3F8002862D101F08D
:1007300057F8AA2803D101F07DF8AA285AD13159D7
:10074000725B50010818D023F358002B04D098474F
:10075000002807D0725B3159012801D150010818D7
:1007600000F0F2FA705B401C705331590029D5D16A
:1007700040E0D420264C2058002803D0E9784908CE
:1007800000F026FBC425605900282BD0C226A05BB0
:10079000C821615C80B2884224D201F099F8002817
:1007A00020D101F01DF8AA2803D101F043F8AA28AE
:1007B00018D16159A25B50010818D023E358002BCF
:1007C00004D09847002807D0A25B6159012801D1C5
:1007D0005001081800F0B8FAA05B401CA053615902
:1007E0000029D5D1C820205CC221615A814201D3A1
:1007F00001F06EF801F06CF8002801D100F030F93A
:10080000012001B0F0BD052000F01CF9C803002054
:1008100000020020B0B5054607202840002401282A
:1008200012D0022812D1002907D00A4801F044F85A
:10083000280609D500F0C8FF06E0412081000548E0
:10084000002201F051F804462046B0BD022000F01D
:10085000F9F8C0465004002080B5020A054B5A54EE
:100860004A1C92B29854881C81B2202000F006FBEA
:1008700080BDC0465004002096B0BD2045490026EA
:100880000E54159614961396434F45487844059098
:1008900044487844049044487844039012A8068061
:1008A00006AD284602F00CFC0446A88580B200285C
:1008B00014D005285DD006A88685109801F02EF882
:1008C0000F200003204009210903884203D003219F
:1008D0004903884221D112A8048025E006A801F02E
:1008E0001DF8149915911496109013981599C0B28B
:1008F00089B200F0C3FA15901396159800283DD0E0
:100900003878E0283DD178780128059919D0042855
:1009100016D0022839D1039913E0204804400D2055
:10092000C002201812A908801298000A149978545D
:10093000481C1490129814997854481C14900AE09A
:1009400004990C463B79F978B87814AA019213AA55
:1009500000927A1DA04700F0D5FF06A9884202D177
:10096000109800F0DBFF06A8808D002896D000F0DC
:1009700069F806A88685109800F0D0FF052000F0E1
:1009800061F83720400200F05DF86D20000200F0B1
:1009900059F8C0460803002050040020FF0700005B
:1009A00021FAFFFFDF0E0000B1F8FFFF10B58CB099
:1009B0006C46204602F084FBA085000406D1684600
:1009C00000F0ACFF0A90FF2000F068FF00F09AFFF3
:1009D0006946884202D10A9800F0A0FF6846808DDF
:1009E000002801D10CB010BD00F02CF880B50349EF
:1009F00079440020024602F01BF880BD282A00003E
:100A000080B5FF2000F04AFF80BD000080B5064899
:100A10000078002801D102F0CDF904497944002082
:100A2000024602F005F880BD000200209C2900006B
:100A300080B5FFF7EBFF80BD704780B5002000F068
:100A40006DFF80BD0446724604487844214600F09C
:100A5000DDFC00F057FF214602F03EFBDE290000DE
:100A600080B503487844052100F026FF80BDC046CC
:100A7000DE29000010B51648C078032807DC0128DD
:100A80000DD002281FD1134801F00CFA10BD042824
:100A900016D0082817D10F4801F002FA10BD0D4CEE
:100AA0000121204601F0F7F9204601F0D5F90A4866
:100AB0008179002908D10C30122102F0C5FA10BD4D
:100AC000044801F0EBF910BD0520FFF7BBFFC0465D
:100AD000D0030020D8050020540500207F210140CC
:100AE000052903D802484018007B70470020704752
:100AF0005405002080B51548C2787F211140027945
:100B0000042A14D0022A06D0012A1DD1811D1148C1
:100B100001F0B2F880BD052916D84A000C4B9A188E
:100B200000235382821D0B4801F02AF980BD05295C
:100B30000AD8074A521843797A2B00D37A231373C1
:100B4000821D044801F0C6F880BDC046D0030020D5
:100B500054050020D805002070B5FF2A1DD8154681
:100B60000E4604460D48427120210171502101704A
:100B700080212143C170D11C8170090A4170062176
:100B800000F09AFE3046294600F096FE6006000E00
:100B9000034908187D210901418270BDD00300205E
:100BA0005405002080B50A46014682201423FFF731
:100BB000D3FF80BD80B50A46014683201423FFF78A
:100BC000CBFF80BD10B526488178427812025218BA
:100BD00001780F2908DC0E291CD00F292CD1012AFD
:100BE00031D1FFF747FF32E010292AD0162923D14F
:100BF0001C490B780124002B2AD10A230B700623F1
:100C00008B717D2A00D37D224A80C11C164802F0D8
:100C100020FA1DE013488168643181601C21425A2A
:100C2000002A06D01346643B00D200234352642AB4
:100C300010D9891E1029F2D10220FFF765FB044666
:100C400006E0032A01D2002402E0FFF753FF01244B
:100C5000204610BD002101700520FFF7F3FEC046BD
:100C6000D0030020540500205004002080B500F07F
:100C70009DFD0D2802D3FF2000F010FE0548202125
:100C800002F0E2F900F012FB03480021016041602C
:100C900080BDC04654050020740500207047000048
:100CA00002480021016041607047C0467405002081
:100CB000F0B589B00546084600F046FD00283FD053
:100CC0000446006900283BD0284600F03DFD01465F
:100CD00002AD1C222846019202F0BBF92268194895
:100CE00065210170EA806168298192B289B251431D
:100CF000A36859434A07CE08002A00D0761C04276F
:100D00009F40B9191D318170090A4170032100F01B
:100D1000D3FD2846019900F0CFFDA1680948017074
:100D2000012100F0C9FDE06800F00EFDB9B200F04D
:100D3000C3FDB5B2206900F007FD294600F0BCFDF7
:100D400009B0F0BDD003002070B500F0FDFC0446F2
:100D5000067800F0BDFD002831D17F2006402ED05E
:100D6000E06900281DD000F0EFFC0546052E02D1F9
:100D7000A07E002824D0284602F0BCF9064613487D
:100D80006521017031461C318170090A41700321CF
:100D900000F092FD1C21204600F08EFDB1B22846E5
:100DA0000BE00A481C258570002141706521017007
:100DB000032100F081FD2046294600F07DFD70BD35
:100DC00020462946FFF774FF70BDC046D0030020BF
:100DD00070B5002825D00B460246124C03CC083CC7
:100DE000984201D1491C61601843002B02D0206059
:100DF000054605E00025256065600B4E761C3043F6
:100E00009D4201D000236360082909D3074C4C435D
:100E10000123074DAC4201D29C072043DB079843D6
:100E2000904770BD74050020FFFFFF7FABAAAAAA00
:100E300056555555F0B581B00F4E01243470B11C94
:100E4000FF2702377A1C204600F01CFD0546707013
:100E50003A1A8719F91C022000F014FDB8702D18F9
:100E6000AE19F47000F002FD0021B1719021717192
:100E70003071E81D01B0F0BD50040020F0B585B020
:100E8000420707D00646F0B289B2FFF7C3FC80B232
:100E900005B0F0BD0127904D8E4C06461022024051
:100EA0000B0404967AD0002A78D101910292039023
:100EB00000F00EFD002808D080210022204600F01E
:100EC00013FD012000F016F9F2E7A86800902878D9
:100ED000092807DD0A2801990DD00B2822D1824864
:100EE000784404E00728019919D17D48784489B2F3
:100EF00000F048FA1DE0FF2006308EB2864200D393
:100F0000E4E0A17053202070080A6070032120469D
:100F100000F0D2FC7148314600F0CEFC27E00028FA
:100F200000D1D0E0F0B289B2FFF774FC002800D005
:100F3000C9E0287800281AD07D20000100990E18F9
:100F40006A487844052100F0B7FC80210022204641
:100F500000F0CAFCA868B04200D3B1E0FFF732FE4F
:100F600000F0B6FC0028F0D128780028E8D1002055
:100F7000A871287068800499890688D459487844F3
:100F8000052100F099FC049840B200280398029AC9
:100F900004D5052000F082FC029A0398002A05D1AE
:100FA000400600D589E00020A871287000206880E4
:100FB0004F487844052100F07FFC80210026204620
:100FC000324600F091FC032831D3A17862781202F6
:100FD0005118C91C81422AD1FFF7F4FD68884142AB
:100FE00041412A78002A3A4600D00A46002ADFD139
:100FF0003A4B1978B02900D049E75978A72918D079
:1010000002292CD0012900D041E7D9784A1E91410C
:101010009A78002A3A4600D10A46002A00D036E7DC
:101020000720049E0640FFF705FF014640E0002030
:10103000BBE7D9784A1E91419A78002A3A4600D1F6
:101040000A46002A00D022E7002024494870902058
:1010500008707F20C043049E0643022128E0D9780F
:101060004A1E91419A78002A3A4600D10A46002A3F
:1010700000D00CE700F0DEFBAA280ED101201749B2
:101080000870881C402100F0C9FB144B5870811C6B
:1010900089B290225A54C01C04E069200F4B18708A
:1010A0008526012081B25E540721049E0E40411C1A
:1010B000F0B2720700D1F1E6E5E66888401FE6E687
:1010C0000520FFF7BFFC0420FFF7BCFC0220FFF760
:1010D000B9FCC046D0030020540500205004002075
:1010E000B5FCFFFFC4240000D1FCFFFF0025000079
:1010F0009024000070B5044610487844052100F0A3
:10110000DBFB0C4E8021002530462A4600F0ECFB2C
:101110003078152806D8012181400748014201D0C6
:10112000002C04D1FFF74EFD0546401E85412846A0
:1011300070BDC046D003002020702000482300006E
:10114000B0B582B001ACE0700120A07000256570E0
:10115000662020700421204600F0AEFB03212046CB
:101160002A4600F0C1FB02B0B0BD0000F0B581B06E
:1011700000920446464FB9420FD00E46444F4025D8
:101180003846294601F060FF009A402A00D32A46DB
:101190003846314601F061FF3D4FB878012808DC40
:1011A00000282BD001286BD1F81C0421FEF7BEFFCC
:1011B00029E0022827D0052862D13879F978090278
:1011C0000918344E326800208A4220D13168002943
:1011D00026D00098401F82B22F490B68934200D25C
:1011E000086881B23B2900D33B2084B22B4D28688C
:1011F000791D224601F031FF2D6837E00020B871DB
:1012000078713871F87022484021A04700202149A8
:1012100000220A6021490A601F490A6001B0F0BD3E
:10122000B9797A79120252181D490A600A68412375
:101230009B009A42EBD808681749086078783A789A
:1012400012021018174A10600A680098C01F83B273
:101250009A4200D2086881B2392900D3392084B279
:10126000F91D114D2846224601F0F3FE0A48016897
:10127000091B01602819094908603068401C30606A
:1012800005480068002801D00120C7E70220BEE71A
:101290007C050020BC050020C4050020C8050020F6
:1012A000C0050020CC050020500400200348002188
:1012B000016003480160034801607047BC050020DD
:1012C000C8050020C4050020F0B581B0274A156884
:1012D000274B1968002921D0002D1FD00090274CE2
:1012E000671D3B263846314601F0AEFE204A0520F8
:1012F000A07023480168090A2170006860701D49C8
:101300000868000AE0700868207109681068002900
:101310000CD03B2800D81668384612E0154800214A
:10132000016011601448017019601DE0392801D96D
:10133000392600E016681068000A60711068A07114
:10134000E01D2946324601F088FE094B009A074904
:101350001868801B1860A819086006490868401CB6
:10136000086006484021904701B0F0BDC805002044
:10137000C4050020BC050020540500207C05002089
:10138000CC05002080B500290BD0064A002313604D
:10139000054A1160054A064B1360064A1160FFF7C3
:1013A00093FF80BDBC050020C4050020C8050020B7
:1013B00050040020C0050020F0B581B00D46044661
:1013C000DC201149085C03281CD100F081FA0028B8
:1013D00004D068460321002200F086FA6E46B570FC
:1013E00066203070280A707003273046394600F0B6
:1013F00063FAA9B2204600F05FFA0022304639466F
:1014000000F072FA01B0F0BDD805002083B0F0B54D
:101410008EB013AC0EC4002800D180E1044613A89E
:1014200008902078002800D179E10121049100255D
:10143000002805D0252803D0601940786D1CF7E7F7
:1014400020462946FFF7B8FF605D252843D1601983
:10145000441C002320271E4618462178641C0022C5
:101460002D290CDC1046F8D025296DD02A2900D072
:1014700003E12078732800D0FFE0022026E047290E
:101480002BDC0A46303A0A2A0FD2079730221F4631
:101490000B46534006973B4300D0079A0A23069F0A
:1014A0007B435B18303B1746D7E72E2900D0E4E09A
:1014B00020782A2800D0E0E06078482804D07328FB
:1014C00002D0682800D0D8E0641C012008990A1DC9
:1014D00008920E68C1E76419DFE06729059408DD0A
:1014E000722910DD732932D0752935D0782910D0B2
:1014F000C3E0622916DC482900D1A6E0582900D0B3
:10150000BBE0012006E0682900D1A2E0702900D0EC
:10151000B3E0002002900898011D089100680D902A
:10152000102121E0632900D1ACE0642900D0A4E0BF
:101530000898011D089100680D900A21002800D527
:10154000D1E0002202920FE00594601EA0E019464F
:10155000764C7C44002280E00898011D08910068C8
:101560000D90002102910A21049A039207970646E2
:101570008142069102D9049C274614E05A1E08466F
:10158000049C07461546002106983A460B4601F092
:101590002DFD4A1E9141B04204D86A1E00292B46F7
:1015A000EFD000E02B46039A10466040191A002A3B
:1015B00001D000250DE0079AD2B20025302A03950C
:1015C00008D109AA1D462D2313702B460125302270
:1015D000079203948A1E0D2A0ED8491E0CD0404251
:1015E000019009A84019079AD2B21C4601F039FDB2
:1015F000281901994018451E0398002803D109A80D
:101600002D2141556D1C002F1CD00298002802D0BE
:101610004C48784401E04A4878440796069C0646C0
:101620000798394601F056FC214601F0D9FC705C60
:1016300009A948553846214601F04CFC6D1CBC42B6
:101640000746EDD909A8294623E01946384C7C44C1
:1016500002E01946374C7C44049A0792089A131DFD
:101660000893C0B2176800281AD0012821D0022898
:101670001ED138780028059C3BD005942A48784430
:10168000052106E00898011D089100680D900DA83D
:101690000121FFF791FE059C207800283FD0C6E687
:1016A000002025463A5C401C002AFBD1461E01E082
:1016B0002E462546079800280FD0002EEBD03C7808
:1016C0002009285CFFF73CFD0F202040285CFFF735
:1016D00037FD7F1C761EF2D1DDE706913846314694
:1016E000FFF76AFE0FE040420D9000220392029243
:1016F0003CE70691741C104878440121FFF75CFE1A
:10170000641EF8D12E460698B042C4D9341A0B484C
:1017100078440121FFF750FE641CF8D3BBE70EB0FC
:10172000F0BC01BC03B00047CB1D0000FD1E000053
:10173000111E0000F91D00004F1D0000371D0000A4
:10174000371E00004D1E000080B50449884204D3B6
:101750000349884201D200F005F880BD0000D0C0E6
:101760008039D0C07A460249C91C891A401A70478C
:101770006517D0C010B51946002B07D006480B4698
:1017800014780470521C401C5B1EF9D10920000320
:10179000FFF762F810BDC0465004002001DF0029A9
:1017A00000D170470846FFF74DF9000080B584B0BE
:1017B000002002900190034801A9FFF7EFFF04B059
:1017C00080BDC0463801006080B582B00020019025
:1017D00002486946FFF7E2FF02B080BD3C020060AC
:1017E00080B582B00020019003486946FFF7D6FF1C
:1017F000C0B202B080BDC0464F9F006010B588B037
:101800000A9C05940493039202910190024801A955
:10181000FFF7C4FF08B010BDBA53006080B584B0B4
:101820000191009002486946FFF7B8FF04B080BDFF
:10183000FCA8006080B582B0002001900348694692
:10184000FFF7ACFFC0B202B080BDC0463CA0006054
:1018500080B584B0002102910190034801A9FFF7EF
:101860009DFF04B080BDC0465864006080B582B062
:101870000020019002486946FFF790FF02B080BD4A
:101880006E6A006080B586B001AB07C3024801A94B
:10189000FFF784FF06B080BDD474006080B584B0CB
:1018A000002102910190034801A9FFF777FF04B0DE
:1018B00080BDC046BE9A006080B584B001910090A2
:1018C00002486946FFF76AFF04B080BD818300606B
:1018D00080B582B00020019002486946FFF75EFFA4
:1018E00002B080BDBB84006080B586B001AB07C389
:1018F000034801A9FFF752FF80B206B080BDC04681
:10190000E485006080B582B00020019002486946FD
:10191000FFF744FF02B080BDB187006080B584B09E
:10192000002102910190034801A9FFF737FF04B09D
:1019300080BDC046060B016080B584B000210291D5
:101940000190034801A9FFF729FFC0B204B080BD90
:101950008B9C0060024900200860024908607047C3
:10196000D4050020D005002010B507480221C17021
:1019700001218170002444704F2101700421FFF780
:101980009BFF204610BDC046D003002070B582B03A
:101990006D4600242C710320E8700220A8706C7042
:1019A0004F262E7005212846FFF786FF0120E8709C
:1019B000A8706C702E7004212846FFF77DFF20462A
:1019C00002B070BD10B582B001A80221C170012122
:1019D0008170002444704F2101700421FFF76CFFD7
:1019E000204602B010BD000070B582B0144800243B
:1019F0000460144804606D46AC716971012028715F
:101A00000421E9700526AE706C704F242C70012AF9
:101A100005DC002A0AD0012A0AD1084606E0022A7B
:101A200003D0032A04D1022000E003206946887114
:101A30006846C3710821FFF73FFF002002B070BD68
:101A4000D0050020D4050020B0B582B00D46684610
:101A50000024447140210171C570032181704470DC
:101A6000502101700621FFF727FF280601D50748FE
:101A700000E0054801687F2215400122AA400A4380
:101A80000260204602B0B0BDD4050020D005002081
:101A9000B0B582B00D4668460024447180210171C2
:101AA000C570032181704470502101700621FFF739
:101AB00003FF280601D5074800E0054801687F229A
:101AC00015400122AA4091430160204602B0B0BDFA
:101AD000D4050020D0050020080601D5054800E007
:101AE000034802787F200140012088401040704761
:101AF000D4050020D005002010B582B068460171E1
:101B00000321C17002218170002444704F210170B3
:101B10000521FFF7D1FE204602B010BDB0B582B05E
:101B20001C4615466846437120220271C17050213F
:101B30000170D91C8170090A41700621FFF7BCFEB3
:101B400028462146FFF7B8FE002002B0B0BD10B510
:101B500082B06846427130220271C17003218170E7
:101B600000244470502101700621FFF7A5FE204695
:101B700002B010BDF0B581B0002814D015460E4655
:101B800004460746DC3745208100204601F05CFA18
:101B9000002E00D07E612570012038702046FFF7AE
:101BA000D9FE002000E0022001B0F0BDB0B504462F
:101BB000DC20012121541720C543601943218900ED
:101BC0004058002806D04068FFF7BEFD0246217944
:101BD000204690470835F0D12046FFF7F3FE204617
:101BE000FFF7C2FE0020B0BD002A08D00346002047
:101BF000022B03D8DB00C918F423CA507047022017
:101C0000704780B5FFF7C2FE002080BDF0B581B0FF
:101C10000C4605460026F4272846314600F05FF9B9
:101C2000002807D0E8590068FFF78EFD02462846D5
:101C3000214690470837761C032EEDD1002001B0D5
:101C4000F0BDF0B581B00C4605460026F4272846C5
:101C5000314600F044F9002807D0E8594068FFF702
:101C600073FD02462846214690470837761C032E0E
:101C7000EDD1002001B0F0BD70B504460646D43663
:101C800035461435284600F061FBD420012121504F
:101C9000EE20205A7060317D1F200840022808D0B5
:101CA00001280BD000280ED12046294600F022F949
:101CB0000EE02046294600F0C6FA09E020462946F3
:101CC00000F09DFA04E0802001402046FFF7BCFEB2
:101CD000002070BDF0B583B0029204460646DC36A3
:101CE000019100291AD00027F4252046394600F03A
:101CF000F6F800280DD060598069002809D03178A5
:101D0000032906D1FFF720FD034620460199029AD8
:101D1000984708357F1C032FE7D12EE020468030FE
:101D2000416D032929D10068E16F81420AD9091A5E
:101D3000E167814200D301468AB22046029900F051
:101D40001FFD1AE00025F4272046294600F0C7F8B9
:101D500000280BD0E0590069002807D0317803290A
:101D600004D1FFF7F1FC01462046884708376D1C77
:101D7000032DE9D1204600F00AFD002003B0F0BD9C
:101D8000F0B581B004460746D437009100291AD037
:101D90003D460026F4272046314600F0A0F80028F2
:101DA0000CD0E0594069002808D0297A032905D1D0
:101DB000FFF7CAFC02462046009990470837761C78
:101DC000032EE8D145E0386802283CD1E069256A55
:101DD000A84209D9401BE061F96B4919F96382B245
:101DE000204600F0BFFC2EE0A6693046294601F0EF
:101DF000F7F8AE420CD300290AD17868864207D2A0
:101E00000025204629462A4600F0ACFC7D601AE0F9
:101E10000025F4262046294600F061F800280BD062
:101E2000A059C068002807D0397A032904D1FFF7E8
:101E30008BFC01462046884708366D1C032DE9D1EE
:101E4000204600F0B0FC387B012802D13946002042
:101E50003873002001B0F0BD70B50446DC200121CC
:101E6000215480204021215021620025F426204663
:101E7000294600F034F8002807D0A0594068FFF741
:101E800063FC024621792046904708366D1C032DDD
:101E9000EDD1002070BD0174002070470020704714
:101EA0000020704770B50446DC20205C032814D164
:101EB0000025F4262046294600F011F8002808D015
:101EC000A059C069002804D0FFF73EFC0146204617
:101ED000884708366D1C032DECD1002070BD022907
:101EE00006D8C9004018F4214058411E8841704767
:101EF0000020704780B54A78042A08DD072A0FDCE5
:101F0000052A14D0062A1BD100F021F81DE0002A72
:101F100010D0012A17D0032A12D100F02AF914E0B8
:101F2000082A0AD0092A0BD100F0B1F80DE000F020
:101F30008BF80AE000F0F9F807E000F0DFF804E0C1
:101F400000F06EFB01E000F031F9002080BDB0B57B
:101F500082B00D46044601A8002101802046F030E1
:101F60006B881A0A052A11DC012A1AD0022A21D00C
:101F7000032A32D1D9B2022934DC002958D00129F0
:101F80005CD0022929D10068C0680CE0062A19D06B
:101F9000072A1FD00F2A20D10068C069002802D16B
:101FA0001BE000680068FFF7CFFB0246207C01A918
:101FB00090472BE04068002829D0217C00291FD0C1
:101FC000C06A1EE0217C002907D14068002804D0A7
:101FD000406B16E0217C00290DD02046294600F0F8
:101FE0001FFB23E0032926D004292AD00529F4D198
:101FF00000688069D7E740680028EED0006B00E0F9
:10200000806AFFF7A1FB014601A88847014601A8A5
:102010000288002A0AD0E888002807D0824200D32C
:10202000024601A80280204600F086FB02B0B0BD47
:1020300000684068B7E700680069B4E70068806836
:10204000B1E700684069AEE770B5044688880028AB
:1020500007D1C888002804D12646DC36307803280A
:1020600003D1204600F0DCFA70BD88787F2505405A
:10207000B57020462946FFF73FFD204600F087FB5C
:10208000002D01D0022000E00120307070BD70B53D
:102090000D4604468E78022E1CD2DC20215C2046A0
:1020A000DC30032906D0022914D1002E22D00321CE
:1020B000017008E0002E12D06068B0421AD0C1B2A0
:1020C0002046FFF7BEFD666020463146FFF79EFDC5
:1020D00002280FD12046294600F0A2FA70BD002147
:1020E00061600221017020463146FFF7AAFD2046BB
:1020F00000F04DFB204600F04AFB70BD80B5CA8859
:10210000012A0AD1DC22825C032A09D0022A04D1E6
:10211000002181600146083103E000F081FA80BDB2
:10212000011D012200F008FB80BDB0B50446DC2093
:10213000205CFE220240022A0FD12046DC30012121
:10214000E16025460C35806800280AD0204600F062
:102150002AFBE1680220084304E0204600F060FA10
:10216000B0BD0320E06002222046294600F0E4FAD8
:10217000B0BDB0B504464888012816D10D46E4200C
:1021800001212150287902280CD8C0002018F42100
:102190004058002806D08068FFF7D6FA024620464D
:1021A00029469047204600F0F2FAB0BDB0B50D4682
:1021B0000446DC20205CFE21014002291AD16888F7
:1021C00001281BD12046DC300021816028790228BB
:1021D0000CD8C0002018F4214058002806D0806890
:1021E000FFF7B2FA0246204629469047204600F003
:1021F000CEFAB0BD2046294600F012FAB0BDB0B507
:102200000D460446DC20205C032816D128790228DC
:1022100013D8C0002018F421405800280DD0806841
:10222000FFF792FA0246204629469047E8880028A0
:1022300007D1204600F0ABFA03E02046294600F023
:10224000EFF90020B0BDB0B582B00D460446097963
:102250007F200840072804D32046294600F0E0F9F3
:1022600071E02A7860231340202B0FD102290DD86A
:10227000CA00A218F423D258002A07D09068FFF7AA
:1022800063FA02462046294690475CE06A78002AB5
:102290000AD0012A11D0032A55D1DC20205C032862
:1022A0001AD002280FD0D7E7DC22A25C032A2ED056
:1022B000022AD1D100280BD145E0DC22A25C032AFE
:1022C00031D0022AC8D180200A460243802A3AD05F
:1022D0002046FFF7B9FB36E06888002807D1802048
:1022E0000843802803D02046FFF7AEFB2979022956
:1022F00026D8C8002018F4214058002820D0806833
:10230000FFF722FA024620462946904718E0204669
:10231000FFF7E2FB411E884101A908800222204606
:1023200000F00AFA0FE06A88002A0CD1002807D0D2
:102330002046FFF7ADFB2879022801D8C000D9E775
:10234000204600F024FA002002B0B0BD0A780270E6
:102350004A7842708A78CB781B029A1842800A79B0
:102360004B791B029A1882808A79C97909028918E7
:10237000C180704710B504468021FFF765FB00213E
:102380002046FFF761FB10BDF0B583B00E46054651
:1023900002A80024048001A8047009786020084085
:1023A00010D0202837D1707801460A39022932D35B
:1023B00002281BD0032819D02846314600F030F9F6
:1023C000022428E070780B2813D00A280ED00628A3
:1023D00021D1F078002421280FD02228224621463E
:1023E00016D102AF384600F049F80AE001A90122EF
:1023F0000EE0284600F0CBF90DE002AF384600F0C1
:1024000029F801463A88F088824200D302463A8091
:10241000284600F091F9204603B0F0BDF0B581B038
:10242000044682210326402532462B46FFF7DCFA7C
:1024300002272046394632462B46FFF7D5FA20467A
:1024400039462A46FFF783FB002001B0F0BD00208B
:10245000704700000146EC20064A125C0020002A6A
:1024600001D0034600E009230B80002A01D1024875
:1024700078447047D8050020001000000146EC2089
:10248000064A125C0020002A01D0034600E0222305
:102490000B80002A01D1024878447047D8050020FB
:1024A000E10F000080B5022903D103487844FEF70C
:1024B0000BFF002080BDC046F5E6FFFFB0B5022946
:1024C0001AD1144602214022FFF741FB0B4DA87997
:1024D000002811D10220FEF701FB0246094878448A
:1024E0002146FEF743FE022806D10720287001206E
:1024F000A8710348006868800020B0BD5405002022
:10250000C0050020C3E6FFFF70B504468321032504
:1025100040262A463346FFF767FA204629462A46D0
:102520003346FFF761FA204629463246FFF70FFB94
:10253000002070BD002070470020704780B503293F
:1025400003D103487844FEF7BFFE002080BDC0469B
:102550006DE6FFFFB0B503291AD1144603214022CE
:10256000FFF7F5FA0B4DA879002811D10320FEF7EB
:10257000B5FA0246094878442146FEF7F7FD0228DD
:1025800006D10B2028700520A871034800686880D8
:102590000020B0BD54050020C00500203BE6FFFF31
:1025A00012200880014878447047C0461611000088
:1025B00004200880014878447047C0461811000084
:1025C0000E200880014878447047C0460C11000076
:1025D0000E200880014878447047C0460A11000068
:1025E0000A200880014878447047C046081100005E
:1025F0000E200880014878447047C046EA10000069
:102600000E200880014878447047C046DA10000068
:1026100039200880014878447047C046850E000084
:1026200080B500228A56002A02D4FFF7A3FE80BD9F
:102630004A78772A0CD0062AF7D14A88144B9A4256
:10264000F3D1CA88122A00D31222124979441CE01D
:102650008A88042A06D1CA88282A00D328220E494B
:10266000794412E08A88052A06D1CA88922A00D3C2
:1026700092220A49794408E08A88072AD5D1CA8873
:10268000B22A00D3B2220649794400F055F880BD41
:10269000EE030000A80E000098100000920E00004B
:1026A000100F0000B0B504464520850015482946A6
:1026B00000F0CAFC14480C30122100F0C5FC002CBC
:1026C0001BD0104C2046294600F0BEFC0F4979442F
:1026D000002520462A46FFF74DFA0D4A7A4428463F
:1026E0002146FFF781FA01200A4A7A442146FFF782
:1026F0007BFA2046FFF785FAB0BD0248FFF756FA8D
:10270000B0BDC046D805002054050020060E0000CC
:10271000700F00009A0F00004021018001487844AA
:102720007047C046021000000A2101800148784429
:102730007047C04632100000B0B50C46D4210223C9
:1027400043508261C2610146D431CC63016A914237
:1027500000D80A4693B2002529462246FFF7DEF943
:102760002846B0BDB0B50C46016A914200D80A4671
:1027700093B2002529462246FFF7D0F92846B0BD7E
:1027800010B500242146FFF7E2F9204610BD10B530
:10279000D421042242500024214622462346FFF73A
:1027A000BDF9204610BD10B5D421052242500024A9
:1027B00021462246FFF7CBF9204610BD10B511493E
:1027C0000A780120012A1BD8521E0C235343CB1830
:1027D0009A8B002A14D05969002911D01B8B002B29
:1027E00005D194006418241F2468E41C08D1934286
:1027F00005D29A005118091F0968891C00D00020D1
:1028000010BDC0460002002010B50E490A78012014
:10281000012A16D8521E0C235343CB189A8B002A38
:102820000FD0596900290CD01B8B541E9C4208DD27
:10283000921E9A4204DD9A0051184968891C00D002
:10284000002010BD0002002070B50146154A107826
:10285000012826D8401E0C234343D218958B002D07
:102860001FD05469002C1CD0022D1AD3138B6E1E5E
:102870009E4216DD16461836AD1E9D420ADB9D00AF
:102880002C196468A51C0CD0E41C03D100213180F4
:10289000518304E05C1C34805383002901D000F094
:1028A00033F870BD00020020B0B516490878012841
:1028B00026D8401E0C22424389188A8B002A1FD03A
:1028C0004C69002C1CD0022A1AD30D8B0B461833EE
:1028D000002D09D0AA001219121F1268921C0FD0E5
:1028E0006A1E1A804D8309E095002C19241F246864
:1028F000E41C05D1941E1C80521E4A8300F004F88B
:10290000B0BDC04600020020F0B581B004460C20E6
:1029100060431A490E187069318B890040580321B1
:10292000C943884227D8374618371436FEF70CFFBC
:1029300031683A889200895805680846FEF704FF16
:10294000002D06D00068FEF7FFFE014620468847AE
:1029500011E08068FEF7F8FE054630683988890086
:102960004058FEF7F1FE4068FEF7EEFE02462046B4
:10297000294600F05DF801B0F0BDC046000200201D
:10298000F0B581B0294D2878012825D8401E0C26A5
:1029900070432A18908B00281ED0516900291BD043
:1029A000128B824218D290000858FEF7CDFE806844
:1029B00029784C1E6643002810D0A8194169008B65
:1029C00080000858FEF7C0FE8068FEF7BDFE014695
:1029D0000022204600F02CF801B0F0BDA819818B30
:1029E0000029F9D0058B8A1EAA42F5DB0146183171
:1029F0004369AE00F6187668F71C10D0B61CEBD110
:102A00002E46AD00ED186D68AD1C04D1761C0E800D
:102A1000B5B2AA42F5DA721C0A80468302E00022AF
:102A20000A8042832046FFF76FFFD5E700020020AF
:102A3000F0B581B015460C234343214AD718002333
:102A4000BB837B61BB6153609360D36013610029DA
:102A500034D000903C4614343E461C360846FEF7FF
:102A600073FE206031888A008258521C06D0491CAF
:102A70008AB292008258521CF9D13180002D1AD0AE
:102A80003E4618362846FEF75FFE05462068318828
:102A900089004058411C0ED01A37FEF755FEA84257
:102AA00009D030883880401C3080216880B2800096
:102AB0000858411CF1D10098FFF726FF01B0F0BD86
:102AC0000002002080B50A49884208D0094988429E
:102AD00008D00949884208D1FFF7E6FE05E0FFF774
:102AE0004FFF02E00120FFF7AFFE002080BDC0468F
:102AF00003000080020000800100008010B5014644
:102B00000020002900D010BD094CA18B0029FAD06B
:102B1000228B8A42F7D26069FEF716FE218B89006C
:102B20004058FEF711FE4068FEF70EFE10BDC0468D
:102B30000002002080B503480078401EFFF7DEFF4A
:102B400080BDC0460002002010B5044600F06CF9BC
:102B50002420604308490818C82105224254C42192
:102B6000064A7A444250D421054A7A444250C1214F
:102B70000122425410BDC046000200200A0C000091
:102B800057FFFFFF80B500F0E9F8002807D0A12229
:102B900003498A5C112A02D1B822024B8B5280BDB4
:102BA000000200200A80000010B50446FFF7CCFFA9
:102BB0002420604304490818D021044A7A44425032
:102BC000204600F00BF910BD00020020C5FFFFFFFA
:102BD000F0B581B00646FFF7ADFF0546114F3C4604
:102BE000A03420222046314600F037FA70780F28B2
:102BF00006DC01280DD0022810D1FFF705FE0AE0FF
:102C0000102802D0112809D12D1D2868BC21785028
:102C100004E0FFF7D3FD002800D00024204601B0D7
:102C2000F0BDC0460002002010B5044600F0FCF8DC
:102C3000242060430B490818C82105224254C421AE
:102C4000094A7A444250D421084A7A444250D02159
:102C5000074A7A444250C12101224254204600F0E2
:102C6000BDF810BD00020020CA0B000077FEFFFF78
:102C70007BFFFFFFF0B581B00646FFF75BFF05461F
:102C8000144F3C46A03420222046314600F0E5F99E
:102C900070780F2806DC012811D0022812D00F28E6
:102CA00009D014E01038022811D2A120385C0007A6
:102CB000800E2818051D2868BC21785007E0FFF712
:102CC0007DFD01E0FFF7A0FD002800D00024204694
:102CD00001B0F0BD0002002010B5044600F0A4F8D9
:102CE0002420604308490818C82106224254C42100
:102CF000064A7A444250D421054A7A444250C121BE
:102D00000122425410BDC04600020020BA0B000050
:102D1000C7FDFFFF80B5FFF7ADFF002807D0A12258
:102D200003498A5C102A02D3B8220A238B5280BD41
:102D30000002002010B50446FFF7CEFF24206043B8
:102D400004490818D021044A7A444250204600F031
:102D500045F810BD00020020C9FFFFFFF0B581B0AB
:102D60000646FFF7E7FE0546114F3C46A0342022F9
:102D70002046314600F071F97078022804D001280D
:102D800008D1FFF71BFD01E0FFF73EFD00280BD047
:102D9000002409E0A120385C0106090F04D00007D7
:102DA000800E2858BC217850204601B0F0BDC046A6
:102DB0000002002010B5084C207800280AD12046D7
:102DC000C030242100F040F900206061A061E06182
:102DD00001202070401E10BD00020020B0B5044646
:102DE0001048017800290ED0621C8A420BD12421A0
:102DF00061434518FDF752FFC220002129522046A9
:102E000000F022F8B0BD4A424A41611C4B424B419E
:102E10001343012B04D14178AA2901D169214170C2
:102E2000B0BDC0460002002010B50446FDF736FFD5
:102E3000002C00D010BD0348C030242100F004F95C
:102E400010BDC04600020020F0B581B00446042049
:102E5000FEF772FD002839D0972837D02420604330
:102E60001B490C18C420205800282FD02546D035E7
:102E70002646C8362746C437C2342088317880B207
:102E8000884223D2FEF724FD00281FD1FEF7A8FCBC
:102E9000AA2803D1FEF7CEFCAA2817D138682188CA
:102EA000490140182968002902D08847002807D026
:102EB000012803D13868218849014018FDF720FA1C
:102EC0002088401C208039680029D7D101B0F0BD8E
:102ED00000020020002243088B4274D303098B4276
:102EE0005FD3030A8B4244D3030B8B4228D3030CDA
:102EF0008B420DD3FF22090212BA030C8B4202D37C
:102F00001212090265D0030B8B4219D300E0090AA3
:102F1000C30B8B4201D3CB03C01A5241830B8B42AC
:102F200001D38B03C01A5241430B8B4201D34B0395
:102F3000C01A5241030B8B4201D30B03C01A5241FA
:102F4000C30A8B4201D3CB02C01A5241830A8B427F
:102F500001D38B02C01A5241430A8B4201D34B0268
:102F6000C01A5241030A8B4201D30B02C01A5241CC
:102F7000CDD2C3098B4201D3CB01C01A5241830980
:102F80008B4201D38B01C01A524143098B4201D3BA
:102F90004B01C01A524103098B4201D30B01C01AE5
:102FA0005241C3088B4201D3CB00C01A524183085F
:102FB0008B4201D38B00C01A524143088B4201D38C
:102FC0004B00C01A5241411A00D2014652411046EC
:102FD0007047FFE701B5002000F006F802BDC046CB
:102FE0000029F7D076E770477047C046F0B5CE4667
:102FF000474680B5070099463B0C9C4613041B0CC2
:103000001D000E0061460004140C000C45434B43A8
:1030100060436143C0182C0C20188C46834203D9AE
:1030200080235B029846C444494679437243030CAB
:1030300063442D042D0CC918000440198918C0BC24
:10304000B946B046F0BDC04610B5002200F009F800
:1030500010BD10B500F010F810BD10B500F015F857
:1030600010BD0B0010B511001A0000F021F810BDC2
:1030700010B500F046F810BD002310B59A4200D1FB
:1030800010BDCC5CC4540133F8E710B5884202D9B6
:103090008B18984203D3002307E08B5C8354013ADA
:1030A000FBD210BDCC5CC45401339A42FAD1F8E78C
:1030B00003008218934200D1704719700133F9E779
:1030C000F0C041464A4653465C466D4676467EC051
:1030D0002838F0C80020704710307CC890469946C8
:1030E000A246AB46B54608C82838F0C8080000D14B
:1030F000012018470023C25C0133002AFBD1581E6F
:10310000704710B50A000021FFF7D2FF10BD000084
:1031100047656E6572617465205075626C69630005
:103120004B6579203F000000030000000000800094
:10313000200000000100000000000000FFFFFF0071
:103140000000000000000000050003000C00070064
:103150000700000000000000FFFFFF00000000006B
:103160000000070000000000050075000D000800C9
:103170000600000000000000FFFFFF00000000004C
:103180000000060000000000070000000C008000A6
:103190000C00000000000000FFFFFF000000000026
:1031A0000A8000000E030020070000001A008000C3
:1031B0000C00000000000000FFFFFF000000000006
:1031C0000A80000036030020576861742061206C7B
:1031D0006F76656C79206275666665723A0A20259D
:1031E0002E2A48200A0A00492070726566657220FE
:1031F0006974206C6F7765722D63617365643A0A38
:1032000020252E2A68200A0000000000FFFFFF0092
:10321000E001FEC1FD387F06DF81FFC47FF3FFBC04
:103220001FE7E7F13FF80778000000000E000000FC
:103230000E000000010000000832D0C01032D0C0E3
:1032400000000000FFFFFF00E001FEC1FF38700634
:10325000D8797E9E9FE7E7B901E6C0F13FF807788D
:10326000000000000E0000000E0000000100000041
:103270004032D0C04832D0C000000000FFFFFF0045
:10328000481242080400000007000000010000008E
:103290007832D0C08032D0C000000000FFFFFF00B5
:1032A0002184240104000000070000000100000048
:1032B0009832D0C0A032D0C000000000FFFFFF0055
:1032C000088A280807000000040000000100000030
:1032D000B832D0C0C032D0C04172636865746869CA
:1032E0006300697320526561647900566572736981
:1032F0006F6E00312E302E310041626F75740051B7
:10330000756974004172636865746869632041700F
:103310007000286329203230323220556E6972697C
:1033200073004261636B000000000000D832D0C01F
:10333000E232D0C0352DD0C02833D0C0000000000C
:1033400000000000EB32D0C0F332D0C0A92BD0C0B7
:103350004433D0C00000000000000000ED09D0C0E0
:103360000000000000000000000000005C33D0C03E
:10337000FFFFFFFFC432D0C0F932D0C0292CD0C02B
:103380007433D0C06C33D0C000000000010AD0C03C
:103390000000000000000000000000008C33D0C0DE
:1033A000FFFFFFFF6432D0C0FF32D0C0292CD0C055
:1033B000A433D0C09C33D0C0000000003433D0C050
:1033C0004C33D0C07C33D0C0AC33D0C0FDFFFFFF46
:1033D000FFFFFFFF0433D0C01233D0C0A92BD0C0F1
:1033E000D433D0C00000000000000000310AD0C07B
:1033F000000000000000000000000000EC33D0C01E
:10340000FFFFFFFF2C32D0C02233D0C0292CD0C008
:103410000434D0C0FC33D0C000000000DC33D0C086
:103420000C34D0C0FDFFFFFFFFFFFFFF6578636531
:103430007074696F6E5B25645D3A204C523D307844
:10344000253038580A006000020000200045525222
:103450004F52003031323334353637383961626398
:10346000646566303132333435363738394142435A
:103470004445460009211101000122220006A0FF57
:103480000901A1010903150026FF00750895408177
:10349000080904150026FF00750895409108C0052D
:1034A0000F3900021810050038B60834A909A047E2
:1034B0008BFDA0768815B66500011E001C10050066
:1034C000DF60DDD88945C74C9CD2659D9E648A9F8C
:1034D00000000306B2007700A125D0C0B125D0C0FE
:1034E000C125D0C0D125D0C0E125D0C0F125D0C0A4
:1034F0000126D0C01126D0C012034D005300460053
:1035000054003100300030007700920000000001CC
:103510000500010088000000070000002A004400A8
:103520006500760069006300650049006E00740064
:103530006500720066006100630065004700550089
:103540004900440073000000500000007B0031007F
:1035500033006400360033003400300030002D00AA
:1035600032004300390037002D00300030003000B9
:1035700034002D0030003000300030002D003400C9
:103580006300360035003600340036003700360060
:103590003500370032007D00000000000A00000006
:1035A00000000306B200080001000000A8000800A7
:1035B00002000100A0001400030057494E55534279
:1035C000000000000000000000008400040007006C
:1035D0002A00440065007600690063006500490028
:1035E0006E00740065007200660061006300650093
:1035F00047005500490044007300000050007B0064
:1036000043004500380030003900320036003400F5
:103610002D0034004200320034002D0034004500FB
:10362000380031002D0041003800420032002D00EA
:1036300035003700450044003000310044003500BB
:1036400038003000450031007D000000000000001F
:103650001D24D0C04F24D0C08923D0C0000000005A
:1036600000000000A524D0C0BD24D0C00000000090
:1036700000000000000000001927D0C01927D0C0AA
:103680001927D0C02927D0C00925D0C03525D0C0E2
:103690003925D0C000000000000000003D25D0C04A
:1036A0005525D0C000000000000000000000000010
:1036B0001927D0C01927D0C01927D0C02927D0C0BA
:1036C0001201100200000040972C111001020102AB
:1036D0000301040309040E034C0065006400670045
:1036E000650072000E034E0061006E006F00200046
:1036F00053000A0330003000300031002800000081
:103700000001040001000000000000000101574911
:103710004E55534200000000000000000000000071
:103720000000000009024000020102C0320904004A
:1037300000020300000209211101000122220007FA
:10374000058203400001070502034000010904014E
:103750000002FFFFFF020705830340000107050386
:10376000034000010A0600020000004001000000C2
:1037700003000000000080002000000001000000A5
:1037800000000000FFFFFF0000000000000000003C
:10379000050102000C00040007000000000000000A
:1037A000FFFFFF0000000000000000008432D0C0D6
:1037B00005027A000C000400070000000000000071
:1037C000FFFFFF000000000000000000A432D0C096
:1037D000071006000C00740020000000000000002C
:1037E000FFFFFF0000000000088000000000000054
:1037F000071106001A0074002000000000000000FD
:10380000FFFFFF0000000000088000000000000033
:103810000300000000008000200000000100000004
:1038200000000000FFFFFF0000000000000000009B
:10383000050102000C000400070000000000000069
:10384000FFFFFF0000000000000000008432D0C035
:1038500005027A000C0004000700000000000000D0
:10386000FFFFFF000000000000000000A432D0C0F5
:1038700005103800020010001000000000000000D9
:10388000FFFFFF00000000000A80000000000000B1
:10389000071100001C008000200000000000000054
:1038A000FFFFFF0000000000088000000000000093
:1038B0000300000000008000200000000100000064
:1038C00000000000FFFFFF000000000000000000FB
:1038D000050102000C0004000700000000000000C9
:1038E000FFFFFF0000000000000000008432D0C095
:1038F00005027A000C000400070000000000000030
:10390000FFFFFF000000000000000000A432D0C054
:10391000050F10000800100010000000000000005B
:10392000FFFFFF000000000000000000000000009A
:10393000071029000C00800020000000000000009B
:10394000FFFFFF0000000000080000000000000072
:10395000071129001A00800020000000000000006C
:10396000FFFFFF0000000000080000000000000052
:103970000000000000000000000000000000000047
:04000005C0D0000166
:00000001FF
